:020000040801F1
:1000000040370020A9010108E51D0208F1D30108CD
:10001000CD1A0208392D0108619102080000000084
:100020000000000000000000000000003D4F02083A
:10003000554D01080000000091280208015E0208E9
:10004000C3010108C3010108C3010108C30101087C
:10005000C3010108C3010108C3010108C30101086C
:10006000C3010108C3010108C3010108714B010864
:10007000C3010108C3010108C3010108C30101084C
:10008000C3010108C30101087D0801080000000048
:10009000000000000000000000000000D56701081B
:1000A000C3010108C3010108C3010108C30101081C
:1000B000C3010108C3010108C3010108C30101080C
:1000C000C3010108C3010108C3010108C3010108FC
:1000D000C3010108C3010108C301010800000000B9
:1000E000B9670108C3010108C3010108000000004D
:1000F000000000000000000000000000C301010833
:1001000000000000C3010108C3010108C301010888
:1001100000000000000000000000000000000000DF
:10012000C3010108C3010108C3010108C30101089B
:10013000C3010108000000000000000000000000F2
:100140000000000000000000000000002D1E02085A
:10015000C3010108C3010108C3010108C30101086B
:10016000C3010108C30101080000000000000000F5
:10017000000000000000000000000000000000007F
:1001800000000000C30101080000000000000000A2
:10019000C3010108DFF80CD000F020FB0048004745
:1001A0006D0803084037002006488047064800478E
:1001B000FEE7FEE7FEE7FEE7FEE7FEE7FEE7FEE717
:1001C000FEE7FEE70D6202089501010810B5431A2B
:1001D000934209D28318881803E010F8011D03F830
:1001E000011D521EF9D210BD40EA01039B0703D046
:1001F00009E008C9121F08C0042AFAD203E011F866
:10020000013B00F8013B521EF9D210BDD2B201E011
:1002100000F8012B491EFBD270470022F6E710B50B
:1002200013460A4604461946FFF7F0FF204610BD64
:1002300010B5002200E0521C835C8C5CA34201D10B
:10024000002BF8D1D8B2E1B2401A10BD2DE9FE4F13
:1002500081EA030404F0004421F0004100944FF0CF
:10026000000B23F0004350EA01045ED052EA03047D
:100270005BD0C3F30A54C1F30A552C44A4F2F334FF
:100280000194A0FB0254C1F3130141F48011C3F3A4
:10029000130343F4801301FB024400FB034E840A62
:1002A000970A44EA815447EA8357A4FB07680295FA
:1002B0008D0A05FB07854FEA932C04FB0C54270598
:1002C000029D4FEA065847EA1637B5EB08056EEB74
:1002D000070C870E920E47EA811742EA8312A7FBAA
:1002E0000201B6EB0B0164EB00042B0D43EA0C3367
:1002F0005E1844EB1C50DA465146E7FB0201C5F399
:1003000013044FEA0B3343EA14534FEA0432019CBF
:1003100043EA0603A4F10C040294009CCDE900B466
:1003200000F04FF903B0BDE8F08F00200146F9E777
:100330002DE9F04D81EA030404F0004B21F0004563
:1003400014464FF0000A23F0004150EA050220D085
:1003500054EA01021DD0C5F30A570246C5F3130340
:10036000C1F31300C1F30A5640F4801543F480131F
:10037000A7EB0608101BD64608F2FD3873EB050004
:1003800002D308F1010801E092185B41B8F1000FB7
:1003900003DA00200146BDE8F08D00204FF4801103
:1003A000064684460EE0171B73EB050705D3121BA8
:1003B00063EB050306434CEA010C49084FEA3000A1
:1003C00092185B4150EA0107EDD152EA030012D0C6
:1003D00082EA040083EA0501084305D0101BAB4103
:1003E00006D20122002306E000224FF0004302E083
:1003F0006FF0010253101AEB06004CEB085110EBA2
:100400000A0041EB0B01BDE8F04D00F0CBB80EB592
:10041000C10F80EAE0700844CA07002140F233436C
:100420008DE80E000A460B4600F0CBF803B000BD85
:1004300070B5C1F30A5201F000450024C1F3130165
:1004400040F2FF3341F480119A4201DA002070BD7E
:1004500040F233439A42A2F2334203DC524200F0AC
:100460005AF800E090402C43F1D0404270BD00F0BB
:10047000004230F000400AD0C10D01F56071C0F3B8
:10048000160042EA0151C20840071143704700209C
:100490000146704701F0004330B421F0004150EABA
:1004A000010206D00A0DA2F56072C1F31301002A01
:1004B00002DC30BC00207047440F44EAC104C10094
:1004C000E01830BC00EBC25000F035B830B50B4638
:1004D000014600202022012409E021FA02F59D4274
:1004E00005D303FA02F5491B04FA02F52844151E48
:1004F000A2F10102F1DC30BD202A04DB203A00FA2F
:1005000002F1002070479140C2F1200320FA03F36A
:10051000194390407047202A04DB203A21FA02F068
:100520000021704721FA02F3D040C2F1200291402D
:100530000843194670470029A8BF7047401C49006E
:1005400008BF20F00100704710B4B0FA80FC00FA38
:100550000CF050EA010404BF10BC704749B1CCF163
:10056000200421FA04F411FA0CF118BF01212143EF
:100570000843A3EB0C01CB1D4FEA00614FEA1020AA
:1005800042BF002010BC704700EBC350104400294C
:10059000A4BF10BC7047401C490008BF20F00100F8
:1005A00010BC704710B5141E73F1000408DA401C2B
:1005B00041F1000192185B411A4301D120F0010082
:1005C00010BD2DE9F04D92469B4611B1B1FA81F272
:1005D00002E0B0FA80F220329046FFF78DFF044629
:1005E0000F4640EA0A0041EA0B0153465A460843C7
:1005F00013D0114653EA010019D0C8F14002504609
:10060000FFF789FF05460E46504659464246FFF71A
:1006100073FF084305D0012004E020463946BDE8B9
:10062000F08D0020054346EAE0762C4337430A98D4
:100630006305E40AA0EB08000022FD0A44EA4754DF
:100640000A3002D500200146E9E701051019694189
:10065000DDE9084500196941BDE8F04DA2E72DE943
:10066000FE4F804681EA0300C00F0C46009021F047
:10067000004123F00045B8EB0200A94105D24046F5
:10068000214690461C460B46024623F0004010438C
:1006900047D0270DC7F30A00C3F30A510290401A4E
:1006A000019040286BDAC3F3130040F4801B0098DC
:1006B000924620B10023D2EB030A63EB0B0B0198A7
:1006C0005946C0F140025046FFF716FF06460D4658
:1006D00050465946019A00F093F810EB080061412A
:1006E000002487EA115284EAE7731A4340D0009A43
:1006F00062B3019A012A4FEA075215DC001B61EB35
:1007000002014FF0004202EA0752CDE90042001C0C
:1007100041F5801132462B46FFF753FF03B0BDE889
:10072000F08F40462146F9E7001B61EB0201001CF7
:1007300041F5801300185B412018A2F5001747EB24
:10074000030140EAD570B6196D4111E06D084FEA1A
:10075000360645EAC0754FEA0752001B61EB0201FD
:10076000001C41F5801149084FEA30000019514141
:1007700032462B4603B0BDE8F04FFFF713BF009899
:10078000012240000023D0EB020263EBE0730098EB
:1007900021464FEAE074B8EB000061EB0401E9E7A1
:1007A00083F000435BE781F0004158E730B5041E59
:1007B00071F1000404DB4FF00044404264EB01019E
:1007C000141E73F1000405DB1C464FF00043524237
:1007D00063EB0403994208BF904230BD064C074DBD
:1007E00006E0E06840F0010394E807009847103401
:1007F000AC42F6D3FFF7D2FCA0F10308C0F1030826
:10080000202A06DBCB17203A41FA02F043EAE073D4
:1008100006E041FA02F3D040C2F1200291400843C1
:100820001946704770B58C1810F8015B15F0070376
:1008300001D110F8013B2A1106D110F8012B03E079
:1008400010F8016B01F8016B5B1EF9D12B0705D481
:100850000023521E0DD401F8013BFAE710F8013BCA
:10086000CB1A921C03E013F8015B01F8015B521EE6
:10087000F9D5A142D8D3002070BD000010B50A4CB4
:100880006068C0F3801000280CD06FF00100206079
:10089000002001F085F80549F0200870606820F01C
:1008A0004000606010BD00000020014034190020AD
:1008B0002DE9F041204C002602464FF6FF753746E1
:1008C0004FF4007120460EF033FDA06840F08040E8
:1008D000A0602068C0F340000028FAD06FF0020149
:1008E0002160A06840F08040A0602068C0F3400014
:1008F0000028FAD021600022A06840F08040A0606B
:100900002068C0F340000028FAD0E06C216080B27B
:10091000B04200D90646A84200D20546521CD2B2C7
:1009200007440C2AE8D3B81B401B0A21B0FBF1F0A6
:1009300080B2BDE8F08100000020014010B5104CED
:1009400002464FF4007120460EF0F2FCA06840F021
:100950008040A0602068C0F340000028FAD06FF00B
:1009600002012160A06840F08040A0602068C0F3D0
:1009700040000028FAD0E06C216080B210BD000079
:100980000020014070B51C49CA790AB1521ECA71D3
:100990001A4A14781A4A012C137801D0012B03D17A
:1009A000CA790AB10A22CA71164A1578164A012D67
:1009B000147801D1CD792DB1D8B1144800788CB11B
:1009C00030B116E014B10020107010E00120FBE7F8
:1009D0007BB1D8070DD10F490D4808600E481AF0B9
:1009E000EFFC04E028B1012010701420C871012030
:1009F00070BD002070BD0000281C0020E31A0020FC
:100A0000E11A0020E81A0020CD1B0020041B002062
:100A100075680108241C0020D5AB020810B50DF044
:100A2000D7F81748017879B100210170012018F03A
:100A300029FF00F079F81349012008701248134982
:100A40000088088012490880124C2078032810D0B2
:100A50000C2810D000F024F8012000F077F90120D4
:100A600006F04CFC14F06CFA01F0DCFB0D20207059
:100A700010BD094800E009481AF0A2FCF6E70000A2
:100A80008C1B0020ED1A0020A41B0020921B0020CC
:100A9000901B0020AB1B0020B9230108098F02081E
:100AA00070B586B001250026CDE901656420CDE949
:100AB0000350164C009502230822217914480CF0AB
:100AC00053FF2179884208D0C1B22171002003F080
:100AD000EBFF2179012003F0E7FF0E48007804289E
:100AE00006D121790C4869B106700C481AF070FCE7
:100AF0000B480078012807D106B00A48BDE87040CD
:100B00001AF066BC0570F0E706B070BDA41C0020AA
:100B1000E31A0020F41A0020501B0020656202082E
:100B2000E11A0020AD0F020838B525482549264CAA
:100B30000068884209D12548007830B124480078FF
:100B400008B1002000E00120207102200AF064F9C1
:100B500011F082FE50211FA010F0BAFFE622022100
:100B60001D481FF045FC592249211C481FF040FC3C
:100B70006FF07F400AF010F919480AF017F9C822FF
:100B8000782118A007F0A4FE18480AF005F9032000
:100B900007F0ACF91220009040F22F13E12240F24E
:100BA0000B110F2007F00AF82179002003F07CFFD9
:100BB0002179012003F078FFBDE8384011F05ABEDA
:100BC0009C1B002065620208A41C00208D1B0020D5
:100BD000501B002041504800DBBB0200E21E060013
:100BE000F8E103084155544F000000004E535700F0
:100BF00004480078002804D007226A2102481FF028
:100C0000F7BB7047501B0020C2580F007CB5032073
:100C100007F06CF911200AF0EDF800200AF0BCF89A
:100C20004FF4B4740025CDE900543B231A469521B6
:100C3000782006F0ADFD0F200AF0DCF80F480AF02E
:100C4000ABF8CDE900543B231A469521782006F0F5
:100C50009FFD0B4C4FF4EB75B4F92C00A8420CDA55
:100C600008480AF099F8B4F92C00CDE900053B23B7
:100C70001A469521782006F08BFD7CBD585C5F00FC
:100C8000B41B002000EFFF001CB536200AF0B2F8BC
:100C9000064832231A46B0F92A10B0F92C00CDE9E3
:100CA00000019A21782007F055FE1CBDB41B0020DE
:100CB0001CB536200AF09EF8064832231A46B0F9D1
:100CC0002C10B0F92A00CDE900019A21782007F014
:100CD00041FE1CBDB41B002070B50A4A0A4C1378B3
:100CE0004FF4EB7262850022A276E276C4E913012A
:100CF00088470546E06C80472946BDE8704004F00F
:100D00002BBB0000A71B0020B41B00200B480A21AE
:100D1000007806280ED007280CD004280AD00848EE
:100D20000088B0FBF1F007490A8C904204D0088497
:100D300013F01AB80448F3E770470000A71B00201F
:100D400044190020B41B0020401900202DE9F04177
:100D5000144C0746144E20780025F8B1134800784B
:100D6000062805D0072803D0042801D078B113E065
:100D70000F48007880B90F481AF02AFB1FB10E48BF
:100D80000E490068086001203070BDE8F0810C4811
:100D9000007808B100F030F9257000E035700020CF
:100DA000F3E700003A1900203C1C0020A71B00209C
:100DB00038190020C50D0108941B0020A01B00203D
:100DC0003A1D002070B50CF003FF1D481D4C017842
:100DD00071B100210170012018F054FD00F092F86B
:100DE0001949012008701948194900880880208095
:100DF000184D2878032806D00C2806D000F038F8C3
:100E0000208830B116E0144800E014481AF0E0FAE7
:100E100012E01348007808B10F4809E01148007843
:100E200008B10E4804E010480078012802D00F48AD
:100E30001AF0CEFA01F0F6F90D20287070BD00000E
:100E40008C1B0020901B0020ED1A0020A41B00200A
:100E5000921B0020AB1B0020B9230108098F020858
:100E60009B190020F61A0020F41C002021520208D1
:100E70001D4810B500781D4C082801D002280AD161
:100E80002078A0B100212170002003F0A5FD217879
:100E9000012003F0A1FD164816490078042808D067
:100EA000087800281ED1BDE8104005F033BE0121AE
:100EB000E9E7247800231048104A012C0B7006D073
:100EC0000F4909780029EED100881080EBE70388EC
:100ED00011888B4202D3B3EB810F01D91380E2E773
:100EE0000180E0E710BD0000E11A0020381C00205E
:100EF000F31A00203A19002040190020421900205E
:100F00003819002038B5244C2078012801D9002058
:100F10002070022009F080FF11F09EFC002009F0F3
:100F200039FF07F0DFFA4D2238211C481FF060FA24
:100F3000A32291211A481FF05BFA6FF07F4009F05D
:100F40002BFF184809F032FF2422782116A007F061
:100F5000BFFC194809F020FF032006F0C7FF12204C
:100F6000009040F22F13E12240F20B110F2006F007
:100F700025FE12480A210088B0FBF1F012F03AFF7A
:100F80002178002003F028FD2178012003F024FDC2
:100F9000BDE8384011F06EBC381C002082A70C0060
:100FA0004E17070070CA03084E45572041544F4D55
:100FB000495A4552000000004E5357004019002086
:100FC0000A480B4900880988411A0A48032902DAAD
:100FD00064218171704781790029FBD1417E00290C
:100FE000F8D1012141760FF019BA0000921B0020C0
:100FF000901B0020B41B0020184910B5164A098820
:10100000508801F10F03984225D001EBC1044FF045
:101010000A03B4FBF3F4844207D801EB410404EB68
:10102000C104B4FBF3F3834215D20D4B1220401ED2
:10103000C0B233F810408C420AD2094B2433185CFA
:10104000084B00EB8000400018800120507001E048
:101050000028ECD1518010BD381C0020441900201C
:10106000582103083E1D002030B5224B987B0028F4
:1010700008D01946587EC96E28B1401E5876D88EC1
:101080000844D86630BD142058761C7A002254B12A
:10109000B1FBF0F000EB4000C0F34F051A72962D43
:1010A00004D9962502E0B1FBF0F085B2DA662A4653
:1010B000997D587C00F048F8C4B22A46D97D987CC6
:1010C00000F042F80B49C0B270310A8802F10A03FD
:1010D000A34202D3A24200D804B90C804A8802F18C
:1010E0000A03834203D3824201D80028CAD1488030
:1010F00030BD00008819002030B5114B14205876FF
:101100000020D866D88DB0F5827F01D2282406E071
:101110000C49B1FBF0F084B2962C00D99624012042
:1011200018722246997D587C00F00EF8044D224634
:1011300070352880D97D987C00F006F8688030BD35
:1011400088190020A086010008B10020704740F6F1
:10115000282011FB00F06421B0FBF1F0A0F628205C
:10116000A0EB8000400090FBF2F080B2022801D298
:1011700002207047B428FCD9B42070472DE9F04113
:10118000054691B15FF01F0405EB85008000052145
:10119000B0FBF1F006190D3604F10D07012D02D850
:1011A0001048007818B1104802E00024ECE70F481E
:1011B00009F0F2FD3DB1112332460A21384607F00D
:1011C00089FD052D0BD2002009F0E6FD11230A212F
:1011D00004F12102701CBDE8F04107F07BBDBDE8C1
:1011E000F08100009B1900203C86B500DF38250007
:1011F0002DE9F84F6B2381468122E9B3842161F305
:101200000F0463F31F44C92161F30F0062F31F4011
:101210004FEA20480121009102B2211420B2A8EB2C
:101220000103171A0E4605467A1C5B1C08F0D0FD18
:10123000824608F09FFF002009F0ACFD07F052F94C
:101240004EF2416009F0A8FDB9F1000F0AD007FB8A
:1012500009F7052097FBF0F042194346314628462E
:1012600007F038FD002008F085FF221421B2504617
:1012700008F0D6FF504600E003E0BDE8F84F08F064
:1012800003BE242161F30F0463F31F446921BBE70C
:10129000704700002DE9F05F00F028F98B4CDFF873
:1012A00030B2E0790D2803D08BF800000D20E071FA
:1012B0006078002508B3607BF8B1657312F056F9C9
:1012C000E08712F0C7FBA4F84E00E18FD22904D8C2
:1012D000804A1278B2B1502914D9B4F84010B1F54F
:1012E000E17F0FD2B0F59E7F0CD3B0F5AC7F09D86B
:1012F000A078642802D2401CA07004E0A57065703C
:10130000E57000E0A570E07C10B1A079002871D0F4
:101310000020FFF7BDFFA07B00286BD0A57312F063
:1013200025F9E087002005F099FBE18DE08F8A1C0C
:10133000904202D8821C8A4204D2E085608F608687
:10134000A08FA08600F0E2FF12F084FBA4F84E000C
:10135000607808B900F046FEE08F0126DFF878A13A
:10136000462811D35B49097809B9C8280CD3B4F8C9
:101370004000B0F5EB7F07D8B4F84E00B0F59B7F86
:1013800002D3B0F5AF7F19D9E07CA0B1002000F006
:1013900007FB52494FF400308861514900038861CE
:1013A000E574BAF80010052902D20521AAF8001048
:1013B000002017F069F8E5706670A57003F0CCFCAA
:1013C0004849E27C0878024358D0474F8946A7F144
:1013D0000408D0B1E07A30B101280CD002280DD039
:1013E000032811D011E0E6720A2038606E21C8F897
:1013F00000100AE042E00220E07206E00320E07202
:101400003D60C8F8005000E0E57205F077FB12F08F
:1014100015FBB0F5A57F10D2E574BAF800100529C8
:1014200002D20521AAF8001089F80050002017F018
:101430002BF828486571057043E0A0F29F11A6299A
:101440001ED399F80010002918D16179491CC9B23E
:101450006171032912D9657189F80060E07B401C35
:10146000E07323202074E574BAF80010052902D235
:101470000521AAF800100C218BF80010BDE8F09FA0
:10148000657161780029F9D199F80020002AF5D01A
:10149000E27B032AF2D2B0F5E17FEFD9207C00286D
:1014A000ECD189F80050E6742570A4F84850322039
:1014B000A4F84C00E586258703208BF8000005F092
:1014C0001DFBE5723D60C8F80050D7E78819002081
:1014D000AB1B0020F51A0020621B0020001C0240FC
:1014E00000080240F61A0020380800402DE9F05F9D
:1014F000F94CE07C00281DD0F848F949F94E0078F5
:101500000978F94F08434FF400394FF0005A4FF073
:10151000000511D0A07900280CD100F041FAC6F8DE
:101520001890C7F818A094F84C006075E5862587D8
:101530000120A071BDE8F09FA846A5710120FFF72A
:10154000A7FE12F013F8E08712F078FA054612F0C1
:10155000ADF8A4F844000146280000D10120B4F8F9
:101560004220514391FBF0F0642148435C2190FB01
:10157000F1F0A4F84600203412F06CFAE085618C9A
:1015800034F820091E30814207D8D84A0120126958
:10159000904302D1B1F55C7F02D9002000F000FA3F
:1015A000618CB4F8440001F15002904202D85030EE
:1015B000884202D2002000F0F3F9B4F84400C828B1
:1015C00004D8B4F84600B0F5AF7F02D9002000F08F
:1015D000E7F9B4F844006084B4F84200DFF810B3CF
:1015E0002084B0F5617F14D8E08F462811D3C1491B
:1015F000097809B9C8280CD3B4F84000B0F5EB7FDE
:1016000007D8B4F84E00B0F59B7F02D3B0F5AF7F9A
:1016100018D9002000F0C4F9C6F81890C7F818A02F
:1016200084F81380BBF800104546052902D2052135
:10163000ABF80010002016F027FFE5700120607065
:10164000A57077E7607B0028FBD084F80D80617D72
:10165000204619B1A0F84C1084F81580FFF704FD5E
:10166000B4F848004FF62051884206D3B4F84C1025
:101670000A2902D90A21A4F84C10012000F090F99F
:10168000B5F5AF7F1AD284F81380BBF80010052996
:1016900002D20521ABF80010964880F800800020A7
:1016A00000F07EF9C6F81890C7F818A0002016F0D0
:1016B000EBFE84F80580A4F81E803BE7A5F29F109E
:1016C0004FF4DC7CA62805D2654527D2B4F8440047
:1016D000052823D2E08B401C80B2E083B0F57A7FEE
:1016E0001ED98549A4F81E8001200870E07B401CAB
:1016F000E0732320207484F81380BBF800100529C0
:1017000002D20521ABF80010002000F049F9C6F81C
:101710001890C7F818A00C20E0710BE7A4F81E8001
:10172000E18FB1F5877F01D2282100E0A0216A482E
:101730008B4630F8441F0289704891420DD8664BA1
:10174000B3F84640FA2C08D8B3F84030B3F5D27F4E
:1017500003D8654514D2032912D90388141D5B1ED2
:101760001BB20380A14201D95B1E03800832914263
:1017700002D999B2491E0DE0604800F021F90BE052
:1017800001F10A03934201D3022905D2F02C03D2BE
:101790000188491C0180EFE7012005F05FF94E4CFC
:1017A0004FF4967204F16800618EB1F5D07F13D9C1
:1017B000B4F844100F2906D926290DD2494914310D
:1017C0000968890708D50188914202D2491C018025
:1017D00004E00121617401E0A0F80080A18EB1F560
:1017E000D07F13D9B4F844100F2906D926290DD279
:1017F0003D4914310968890408D54188914202D2D3
:10180000491C418004E00120A07401E0A0F802809E
:10181000607C28B1A07C18B1A4F83680A4F8388088
:10182000A07B00283FF40DAF84F80E8000F06EFD21
:1018300003F092FA00F0D6FB11F01AFF85B230489F
:10184000FFF736F8462D02D8B0F5077F0BD2B4F873
:101850004C000A2802D90A20A4F84C00C6F81890B7
:10186000C7F818A066E6B4F8401000224FF43A7E9C
:101870004FF4D173B1F5D27F01D301220BE0B1F562
:10188000CF7F05D83C2D03D2704501D9032202E059
:10189000994200D80222B1F5D07F33D9B4F83EC0C6
:1018A000A1EB0C0109B2032901DB9C4502D3C6F868
:1018B00018902DE0A38E618E03F1020C614503D9CF
:1018C000C7F818A002212AE0891C8B4228D9C6F843
:1018D00018904FF400511CE088190020041B0020D0
:1018E0004A1D0020001C0240000802400000024087
:1018F000621B0020F51A0020F61A00202219002091
:101900000900B003A38E618E03F1040C614502D976
:101910005146B96104E0091D8B42C8D94946B161FD
:101920003C2D01D8704508D2207D401CC0B22075E6
:10193000082802D984F8148008E0012A06D0462D30
:101940001FD2022A0CD0032A12D01AE0B4F84C009D
:101950001E2801D9401F12E0022812D9801E0EE075
:10196000B4F84C001E2801D8801C08E0401D06E099
:10197000B4F84C001E2801D80A3000E01430A4F856
:101980004C00B4F84C00584502D9A4F84CB0D1E54D
:1019900000B20228FBDA0220A4F84C00CAE50000DD
:1019A00005490A78824206D00870002088800349E1
:1019B0000860091D086070471E19002034080040A7
:1019C000124910B5124A0C78131D002134B1B0F938
:1019D0000040C62C06DDC624048006E001801160AC
:1019E000196010BD002C00DA0180B0F90040782C9D
:1019F00006DD78211960B0F900007838106010BD5C
:101A00001160B0F90000186010BD00001E19002020
:101A1000340800400748C17800290AD041780029DD
:101A200007D105490968002903D1C17028200DF0AC
:101A300041B970475A1D0020400400400149002070
:101A4000C88070471E1900200149401DC88070479A
:101A50001E19002010B5FFF7F1FF02490020487061
:101A600010BD00005A1D002070B5074C012565709F
:101A7000207814F0DDFFE078002803D129200DF054
:101A800019F9E57070BD00005A1D00202DE9F041E4
:101A90002748284E284F0178284DDFF8A48001B34D
:101AA00000240470204609F075F906F01BFD254955
:101AB0004FF4104005F05EF9FFF7D6FF2248306082
:101AC000224844800480002017F0DCFE07214FF4F8
:101AD000FA7017F0DDFE0A20388032202880A8F83E
:101AE00000001B4C388898B12988A8F8001000BF66
:101AF00014F04CFC00F0A4FD164817490068096872
:101B0000884201D0154830600D202070BDE8F0817A
:101B10000020FFF71BF918B1124911480860E7E7E8
:101B20001149642008700E4819F052FCE0E70000EB
:101B30008C1B00205C1B0020AE1B0020921B002091
:101B4000901B002088260020D5200208341C00208D
:101B5000AB1B0020981B0020941B0020456201084D
:101B6000AD0F0208A01B0020BA1B00202DE9F04792
:101B70003C4C0546E07A401CC0B2E0721E2805D3FA
:101B80000020E072207B90B1002020733648374E51
:101B9000374F00783178DFF8DC90084339784FF020
:101BA00001080843284304D0A07880B321E0012035
:101BB000EBE7E07AE8B9207BA07088B1484609F0ED
:101BC000EBF8012009F016F91323232208210B203A
:101BD00007F00AF810220B21242007F053F808E040
:101BE000002009F0D9F81323242208210B2007F044
:101BF00071F8214831780078084339780843284340
:101C000009D0E07800282AD184F8038009E0FFE7B2
:101C100084F80280D2E7E07A002820D1207BE070AF
:101C200090B1484609F0B8F8012009F0E3F8132311
:101C3000422208212A2006F0D7FFBDE8F0471022F3
:101C40000B21432007F01EB8002009F0A5F8BDE8DD
:101C5000F0471323432208212A2007F03BB8BDE8B0
:101C6000F0870000B41B0020A2190020041B0020F4
:101C70009B1900203C86B500A31900202DE9F05FD8
:101C80001EF010FDC3494FF0000B074681F800B06D
:101C9000C1494FF4FA70088016F0AAF9BF4C6FF0F2
:101CA0007F464FF47A75002F7DD014F0E7FF322085
:101CB0000AF060FB14F0FAFF14F0C6FE14F0F8FE10
:101CC000002009F067F806F00DFC002009F0A4F8E8
:101CD000304609F061F8B24809F068F84122502115
:101CE000B0A006F0EDFD03F0F5FDFFF7BDFE2846C0
:101CF0000AF040FB20460026058045804FF6FF7421
:101D00003746B246B146A0464FEA060511F02EFC12
:101D100014200AF02FFBA64AA64910880988064419
:101D20000F44504500D98246A04200D2044649459E
:101D300000D98946414500D288466D1CEDB20A2D76
:101D4000E4D3311BA1EB0A00C108A7EB0802A2EB08
:101D50000900C008A1F5CB721D2A34D240F22A3204
:101D6000904230D940F2663290422CD2924A8B4C4B
:101D7000B2FBF0F020805010B0FBF1F0608000204A
:101D800018F018F86088218840EA01410C2012F010
:101D9000F1FD8A480168002012F0ECFD8748001D23
:101DA0000168042000E067E012F0E4FD8348083099
:101DB0000168082012F0DEFD814808F0F7FFA0223C
:101DC000642180A005E07E4808F0F0FFA022642195
:101DD0007DA006F075FD7122742311466F2006F078
:101DE00079FF9C23712299216F2006F073FF774DB4
:101DF000012014242870764808F0D8FF01200AF04A
:101E0000B9FA2878A8B3641CE4B285F800B0142CA1
:101E100029D311F0ABFB6F4F6426002438880123CF
:101E2000B0FBF6F05022572106F082FC38880223DE
:101E3000B0FBF6F106FB11005022742106F078FC8D
:101E40005B4F0123782238885721B0FBF6F006F06B
:101E50006FFC38880223B0FBF6F106FB11007822F4
:101E6000742106F065FC0BF011FF5B480078012837
:101E70007ED017F027F9C1E70E2012F017FD208061
:101E80000C2012F013FD60802188A1F2C631452993
:101E900000D32580A0F2C530492800D365800BF01F
:101EA000F5FE4E480078012872D114F0E7FE32208A
:101EB0000AF060FA14F0FAFE14F0C6FD14F0F8FD12
:101EC000002008F067FF06F00DFB03F003FDFFF7AD
:101ED000CBFD304608F060FF7122742311466F205D
:101EE00006F0F8FE9C23712299216F2006F0F2FE85
:101EF000364D01203A4F287032203880142434485F
:101F000008F054FF3DE001200AF034FA287880B34D
:101F1000641CE4B285F800B0142C32D311F026FB17
:101F2000DFF8B08064260024B8F800000123B0FB7D
:101F3000F6F05022572106F0FBFBB8F80000022310
:101F4000B0FBF6F106FB11005022742106F0F0FB05
:101F5000DFF85C8001237822B8F800005721B0FB3D
:101F6000F6F006F0E5FBB8F80000B0FBF6F101E092
:101F70000AE006E006FB110002237822742106F035
:101F8000D7FB38880028BED1BDE8F05FFFF762BDFF
:101F9000BDE8F09FDC1A002046190020541D0020E7
:101FA000F8570308424154542041444A5500000068
:101FB000C2190020CA19002040D10C00107AFF1F5E
:101FC000C84B03084F4B00004E470000DA1A0020B0
:101FD000BC2B0308C4190020E81A0020BC1A0020FA
:101FE000621B00202DE9F04F8B4801788B4809B126
:101FF000032102E0017B19B1491E0173BDE8F08F96
:102000008649C27C4D8E8C8E62B1C18EC82900D9A2
:10201000C8211422B1FBF2F3B1FBF2F1EB1A611A01
:102020009DB28CB27D49DFF8F491437CCF780022D9
:10203000DFF8ECE105264FF0640B09F170094FF071
:10204000630A243123B180F816B0A9F800206FE0AC
:10205000837D642B03D180F816A0A9F80060B5F544
:10206000A07F02D202760A7025E0B5F5D27F02D3B6
:1020700080F818A01FE001234FEA0E0C3CF81380F3
:10208000A84503D85B1CDBB2052BF7D33CF81380C3
:102090000EEB430C03EB83033CF802CCA5EB0C05E1
:1020A00005EB8505A8EB0C08AD0095FBF8F505EBF5
:1020B0008303143B03760FB9037E8375057E837D0E
:1020C00005F10A0C9C4501D20A7022E005F1050CCD
:1020D0009C4502D20D78AD1E17E005F1030C9C451E
:1020E00002D20D786D1E10E003F10A0C654501D98E
:1020F0000A250AE003F1050C654502D90D78AD1CEF
:1021000003E09D4203D90D786D1C0D7001E005B10F
:102110000E7091F90050002D03DC0E7043B15B1E70
:1021200005E00A2D04DB0E70632B01D25B1C837566
:10213000837C23B180F817B0A9F8022068E0C37D42
:10214000642B03D180F817A0A9F80260B4F5A07F32
:1021500002D202764A7023E0B4F5D27F02D380F82F
:1021600018A01DE00123754635F813C0A44503D817
:102170005B1CDBB2052BF7D335F813C00EEB430520
:1021800003EB830335F8025C641B04EB8404ACEBC3
:10219000050CA40094FBFCF404EB8303143B0376CE
:1021A0000FB9037EC375047EC37D04F10A059D4209
:1021B0001BD3621D9A4202D24A78921E15E0E21C9D
:1021C0009A4202D24A78521E0FE003F10A02944268
:1021D00001D90A2209E05A1D944202D94A78921C78
:1021E00003E09C4203D94A78521C4A7001E004B1D2
:1021F0004E7091F90120002A03DC4E7043B15B1E42
:1022000005E00A2A04DB4E70632B01D25B1CC37508
:102210000121C170F2E60000041B00208819002093
:102220007E1C0308044810B50078002803D003483A
:1022300019F0CEF8012010BD8919002041220108B3
:1022400070B513480024017851B10470002017F0D4
:1022500019FBFFF7FFFB0F49142008800E49088087
:102260000F480E4D007878B90E48047014F006FD42
:1022700032200AF07FF814F019FD14F0E5FB14F099
:1022800017FC094819F0A4F80D20287070BD000053
:102290008C1B0020921B0020901B0020AB1B0020F9
:1022A00089190020B01B0020AD0F0208154810B599
:1022B000F021017441740021C17401752821417518
:1022C00001218170C170104808F066FD012008F0FE
:1022D00091FD1323232208210B2006F085FC1323F4
:1022E000422208212A2006F07FFC10220B21242004
:1022F00006F0C8FC10220B21BDE81040432006F078
:10230000C1BC0000B41B00203C86B500F0B52848D5
:10231000284BC18C428E914222D0C2845FF00001D2
:1023200033F81150954203D8491CC9B20529F7D397
:102330008176458D4C1CEEB2AC4204D133F811705D
:10234000D41CA74209D36D1CA94207D103EB41015C
:1023500031F8021CC91C914200D98676817E4185E4
:10236000018D828E914221D00285002133F81150D7
:10237000954203D8491CC9B20529F7D3C176848D8B
:102380004E1CE5B2A64204D133F81160D71CBE4200
:1023900009D3641CA14207D103EB410131F8021CAF
:1023A000C91C914200D9C576C17E8185F0BD00006F
:1023B000881900207E1C03082DE9F84F0BF008FC5B
:1023C00000906648DFF898B1DFF898810178664D93
:1023D000DFF898A1664F4FF416690024D1B104705C
:1023E000644839780078084320D0002017F04AFA72
:1023F00000F0F4F860490120087060490C708BF817
:1024000000005F49A5F80090A8F80090052008801A
:102410008AF800405B485C4E0078401F08282FD2A5
:10242000DFE800F00A0F1A151F2429060120DDE756
:10243000564818F0CDFF83E0554818F0C9FF5548BD
:1024400003E0534818F0C4FF5348306078E0504828
:1024500018F0BEFF5148F8E74D4818F0B9FF504852
:10246000F3E74B4818F0B4FF4E48EEE7484818F041
:10247000AFFF4D48E9E7464818F0AAFF4B48E4E7AC
:102480004B48007860B13E490520088049480078F3
:10249000B8B149480078A0B19AF80010E1B122E043
:1024A0003748A5F80090A8F800900088D8B9387887
:1024B000022802D004F02EFB15E0404818F088FFF7
:1024C00011E0A5F800909AF8002048460AB1A8F853
:1024D00000008AF8004006E001218AF8001064201C
:1024E0002880A8F800003648364900780978084363
:1024F00004D03878022801D004F00CFB3248007870
:1025000001280CD13878022802D0012803D006E037
:102510003C702E4801E03C702D4818F059FF2D48C2
:10252000007818B19BF8000010B107E08BF800406C
:102530003878022802D00020FEF708FCFFF772FE70
:102540002548007828B1009808B100F047F804F059
:1025500087F80C480D210170BDE8F88F8C1B002016
:102560003C1C0020901B0020921B0020FA1C002025
:10257000B01B0020CD1B0020ED1A0020011B002005
:10258000AE1B0020AB1B0020241C0020098F02087A
:10259000D5AB0208E1580208FD1F020865040208D5
:1025A00079D30108D9040208555D020831220208D6
:1025B0009B190020991900209A190020A563020890
:1025C000E11A0020041B0020E91A00208D1A0108DE
:1025D000AD0F02083A1900205B1D002010B5022043
:1025E00008F01AFC10F038F9002008F0D3FB05F0D1
:1025F00079FF114C66221F2120461DF0F9FE66224C
:102600007F2120461DF0F4FE0C4828210022C170D5
:10261000F02141708170027142718171C17100F1CC
:102620000A03090219805980027204F019F8BDE802
:10263000104010F01FB900000E131800FA1C002003
:10264000F0B5154C154E85B060880A2528B1401E9E
:102650000004000C608035801CD1114823888068FC
:10266000984217DD4FF4104726220021384604F027
:1026700065FB22886946384604F06EFB2088401CC2
:102680002080049818B100EBD070401000E00520C5
:102690006080358005B0F0BD341C0020AE1B0020EA
:1026A0008826002070B5384E0A210025308888B071
:1026B000B0FBF1F40A2C01D2344802E0642C09D2B8
:1026C000334808F073FB224632A102A81DF04AF9F4
:1026D000532013E0B42C01D22F48F2E7B4F5167F53
:1026E00001D22A4800E02A4808F060FB3C20B4FBF5
:1026F000F0F228A102A81DF035F94D208DF8100048
:102700008DF811506FF07F4008F046FB23488DF89C
:102710000C500E22D0E90A10CDE9051005A902A837
:1027200006F0F0F81E4808F037FB1E4808F03EFBA4
:102730009B22782104A806F0CBF830884FF4E17290
:10274000C0F59661C0EB0010514300EB400001EB77
:1027500040004FF4966190FBF1F084B2042005F044
:10276000C5FB114808F018FB0A2008F043FB4FF4A2
:10277000E170CDE900402B231A468B21782005F02B
:1027800007F808B070BD0000A41B0020E4A00308F7
:10279000DC910308256400005C8B030874220308A5
:1027A00000FFFF00687E030800EFFF002DE9F04105
:1027B0000BF00EFA2648274C0125017879B1002646
:1027C0000670012017F05EF800F062F822482449F4
:1027D0000570224826700088088022490880224E11
:1027E0003078032807D00C2807D020781F4F40B13D
:1027F0003888E0B11EE01E4800E01E4818F0E0FDF9
:102800001AE000F07FF81C480078042806D12570F3
:1028100005203880012119A003F020F80120FEF7DF
:1028200095FA012004F06AFD12F08AFB02E01448D8
:1028300018F0CEFDFFF7F6FC1248134900688842F5
:1028400002D01248006880470D203070BDE8F0814A
:102850008C1B0020961C0020ED1A0020A41B0020D9
:10286000921B0020901B0020AB1B0020AE1B002001
:10287000B9230108098F0208F31A00204F4B00000A
:1028800065620208981B0020215202085C1B002090
:1028900008B5022008F0C0FA0FF0DEFF0A210EA0F2
:1028A0000FF016F9E62202210F481DF0A1FD0021CC
:1028B0000E4802F0D3FF0E48017800200346009036
:1028C00041B10C4A0C490D4807F002FBBDE8084035
:1028D0000FF0D0BF0A4AF5E753435245454E205406
:1028E000494D454F55540000DBBB0200A82B0108A1
:1028F000F41C0020A526010851FD020884220308CB
:10290000914F020870B530480025012200781E263C
:1029100086B0052378B32D4C0A212088CDE90132F9
:10292000B0FBF1F001B278200090CDE9032602233C
:10293000082227480BF018F800EB80004FF6FF71D3
:1029400001EA4000218888420BD022492080234A96
:10295000088021490023088000952149214807F07B
:10296000B7FA2148007801282CD106B01F48BDE8ED
:10297000704018F02DBD1E4C2188B42920D807D1F5
:102980001348007808281BD01A480078082817D068
:102990005FF001000DF1080C09B28CE845004FF41E
:1029A0006160CDE900030223082209480AF0DCFF38
:1029B00021888842D5D0208000230F4A0095CCE79B
:1029C0003C20E7E706B070BDF41C0020A41B0020EB
:1029D000E31A0020921B0020901B0020A52601086E
:1029E00051FD020884220308E11A0020AD0F0208FD
:1029F000D61C0020EC1A0020914F020838B50021A7
:102A000007236C22084607F09BF9054607F0B2FB46
:102A1000032005F06BFA154808F0BEF903240021E5
:102A200006236B220846009405F0C8F8104808F009
:102A3000B3F9104865210078401E10FB01F06321B6
:102A400090FBF1F2002106230846921D009405F048
:102A5000B5F8002007F08EFB84224221284607F0BB
:102A6000DFFB2846BDE8384007F00EBA4E5357004A
:102A700000EFFF005A1D00202DE9F04186B00BF059
:102A8000A7F841480026414D0178012461B3067042
:102A9000012016F0F7FE022008F0BEF90FF0DCFE70
:102AA00026213BA00FF014F8DD2202213B481DF047
:102AB0009FFC77221B213A481DF09AFC7722B42113
:102AC00038481DF095FC002137A002F0C7FEFFF743
:102AD00095FF0FF0CFFE35483649047034482E700C
:102AE0000088088034490880DFF8D08098F800001A
:102AF000032807D00C2807D02878314F40B13888F8
:102B0000A8B338E02F4800E02F4818F059FC34E013
:102B10001E2001940294CDE9036064202B4E0090A6
:102B20000223082231782A480AF01EFF31788842B1
:102B300002D03070FFF762FF26480078012802D1EA
:102B4000254818F045FC25480078042806D12C704B
:102B500005203880012114A002F080FE0120FEF73C
:102B6000F5F8012004F0CAFB12F0EAF903E0FFE7F0
:102B70001B4818F02DFCFFF755FB0D2188F80010BD
:102B800006B0BDE8F08100008C1B0020961C0020E0
:102B90004252494748544E4553530000DBBB0200A4
:102BA0007AD4060086DD06004F4B0000ED1A0020A7
:102BB000A41B0020921B0020901B0020AB1B0020B8
:102BC000AE1B0020B9230108098F02085A1D0020FE
:102BD000E31A0020E11A0020AD0F0208F31A0020CA
:102BE0006562020806480178002907D0417800296B
:102BF00004D10121417081710021417170470000B1
:102C0000601D00202DE9F041464D287800286FD046
:102C10004548007800286BD0A879002868D143483F
:102C20000078C0077CD110F021FE414A6979414FFC
:102C300022F811006A78322000268AB10122AA7196
:102C4000092966D16E70A8710A21394801F091FFF7
:102C500011F070F9A8702871385C13F01DFF58E06E
:102C6000A8710A21324801F084FF804611F062F910
:102C70000446421C2F49E8781439824205D131F8C4
:102C8000143008F12802934209D3421C944207D120
:102C900001EB440131F8021C2831414500D90446BA
:102CA000A878844217D900F101018C4202D9E97950
:102CB000491CE971E9790A2902D2491CE97128E025
:102CC0002979201A0844C0B228710A2801D30920A2
:102CD0002871C0B216E01AD2611C814202D2E97991
:102CE000491CE971297A0A2903D2491C297210E08A
:102CF00016E02979201A0844287140B2002800DA29
:102D00002E712879385C13F0C7FEAC7001E0EE71CB
:102D10002E726879401CC0B268710A2800D36E71A7
:102D2000BDE8F081601D00205B1D0020BC1A002062
:102D30003C280020362503081CF078FE10B5002042
:102D400008F02AF800212723EF22084605F0C2FFE9
:102D5000282200210F481DF04BFB262234210E486B
:102D60001DF046FB00200DF08BF90FF083F9FDF705
:102D70003FFF0A490A48FDF7AFFF5A225E21094882
:102D80001DF036FB16F002FD084807494164F8398A
:102D9000816410BDE29611006A310D000DC3010877
:102DA00011C3010872600D00D01E0308B41B00207F
:102DB0000F4810B50088322803D30E494FF4D27063
:102DC00008800D480D490088B0F58C7F0DD2087839
:102DD0000A2802D2401C087002E0092003F0C8FE55
:102DE000BDE81040012016F051BF0020F3E70000BD
:102DF000101B00201C1B00202C1B00200D1B002082
:102E000004494FF4E670088004490348086016F04E
:102E100023BE00001C1B0020B12D01084C1B00200C
:102E20002DE9F0410AF0D4FE2848294D012401780B
:102E300079B100260670012016F024FD00F066F836
:102E40002448264904702448AE700088088024492C
:102E50000880DFF89080244E98F80000032807D0FF
:102E60000C2807D0A878214F40B13888E8B11FE07E
:102E70001F4800E01F4818F0A3FA1BE000F02AF9F1
:102E80001D480078042807D1AC70347005203880C4
:102E900001211AA002F0E2FC0120FDF757FF0120FA
:102EA00004F02CFA12F04CF802E0154818F090FAF1
:102EB000FFF7B8F91348144900680968884200D040
:102EC00034700D2188F80010BDE8F0818C1B0020C3
:102ED000941C0020ED1A0020A41B0020921B00204F
:102EE000901B0020AB1B0020FC190020AE1B002013
:102EF000B9230108098F0208F31A00204F4B000084
:102F0000AD0F0208981B0020941B00202DE9FC4106
:102F1000334E3078022801D202203070314F324CCB
:102F20003878012857D031483178DFF8C48000EB79
:102F30008100002550F8080C6060284603F040FF2F
:102F400008F805006D1CEDB2092DF6D9022007F036
:102F500063FF60780025092800D96570022007F01A
:102F60005BFF0FF079FC21483178183000EB8100CD
:102F7000232150F8080C01F029FC6FF07F4007F086
:102F80000BFF1C4807F012FF38784FF03A02012877
:102F90004FF01B0122D0432005F0C2FB012007F0B7
:102FA00029FF032004F0A2FF4FF4B470CDE90050D4
:102FB00002231A464021182004F0EAFB6178606879
:102FC00030F8110001F01CFA607801F0F9FABDE860
:102FD000FC410FF04FBC05480C30A5E74620DBE76D
:102FE000441C0020A81B0020941C0020242203085D
:102FF00094260020687E03087FB52B482B4E2C4C6E
:10300000017830786425E9B32A4951F820006065D9
:103010004FF41670A087C820E087002007F0BCFEA0
:1030200000212D23EF22084605F054FE2E22002118
:1030300021481DF0DDF927224E2120481DF0D8F946
:1030400001200DF01DF80FF02DF8FDF7D1FD002047
:10305000A075E18FA28F1A48CDE90021CDE9025079
:10306000636D72211A463A2002F034F9154807F0D0
:1030700093FE154807F09AFE14483178C12250F8A3
:10308000210000E006E0782105F022FCBDE87F4049
:1030900016F07CBB0E4951F82000606540F23B10F1
:1030A000A087E587B9E70000A81B0020A91B002026
:1030B000B41B0020302203083AC70D0016920D0001
:1030C00081FC02083C86B500D8D803080421030817
:1030D000242203082DE9F04F85B06C4801F032FA44
:1030E000DFF8AC913220012699F80010694C0525D3
:1030F0004FF4167A01295DD0CDE90360642140F2D6
:103100003B108DE82300617860680223082230F9C3
:10311000111061480AF028FC62786168DFF87CB120
:1031200031F81230834279D021F8120001F068F9A9
:103130006078D8461BF8007003F042FE01466078C4
:10314000B94208F8001003D00246114601F0B6FA61
:1031500099F80000524B5349012803F10C024FF03B
:10316000000030D09946D4460B7859F8237052F8B5
:10317000233037F8107007EBC707B7FBF5F7203798
:10318000BFB223F810700B78B7FBF5F752F8233075
:1031900023F810700B7852F8238007EB87039BB25B
:1031A00028F810300F78634552F8277041D927F876
:1031B00010C043E0CDF800A0CDE903600A22C82189
:1031C000CDE901129FE74FF009094FF49E7AA84616
:1031D0000D7852F8257053F8255037F81070203FBD
:1031E00007EB870C9CFBF9F7BFB225F810700D7840
:1031F000B7FBF8F753F8255025F810700D7807EB5A
:103200008707BFB253F82550574525F810700D7841
:1032100053F8255003D340F23B1703E012E0642F2C
:1032200002D2642725F81070401C80B20928CFD93B
:1032300008E0C82B02D2C82327F81030401C80B207
:10324000092891D918480178B1B1002101700D46C3
:103250005F46284603F0B4FD78556D1CEDB2092D8C
:10326000F7D962780921002001F028FA61786068B6
:1032700030F8110001F0C4F80C480088002801D192
:103280000B48067005B0BDE8F08F0000014401084E
:10329000A81B0020941C0020E31A00209426002084
:1032A00024220308A91B0020A61B0020901B00203D
:1032B000FC1900202DE9F0410AF08AFC2848294D2C
:1032C0000124017879B100260670012016F0DAFA9F
:1032D00000F066F82448264904702448AE7000883F
:1032E000088024490880DFF89080244E98F8000078
:1032F000032807D00C2807D0A878214F40B1388880
:10330000E8B11FE01F4800E01F4818F059F81BE023
:1033100000F00EF91D480078042807D1AC70347015
:103320000520388001211AA002F098FA0120FDF74B
:103330000DFD012003F0E2FF11F002FE02E015484E
:1033400018F046F8FEF76EFF134814490068096844
:10335000884200D034700D2188F80010BDE8F0815B
:103360008C1B0020941C0020ED1A0020A41B0020C0
:10337000921B0020901B0020AB1B0020FC1900209A
:10338000AE1B0020B9230108098F0208F31A0020A0
:103390004F4B0000AD0F0208981B0020941B00202B
:1033A00070B51B4D19481B4E00246860204603F081
:1033B0002DFD3055641CE4B2092CF7D9002028708B
:1033C0006978092900D96870022007F025FD0FF0FF
:1033D00043FA362110A001F0F9F96FF07F4007F0B1
:1033E000DBFC0F4807F0E2FC3A221721562005F0DB
:1033F00097F96978686830F8110000F013F8687878
:1034000001F0DEF8BDE870400FF034BA181A002061
:10341000941C00209426002043435620534554001A
:10342000687E030870B586B005468A20ADF80800AE
:1034300050206424ADF80A000120ADF80440412179
:103440000090ADF8061010232722204606F0C0FC9D
:10345000064606F08FFE002007F09CFC05F042F8BF
:103460006FF07F4007F098FC114807F09FFCB5FB18
:10347000F4F0B5FBF4F204FB10530EA103A81CF00A
:1034800071FA00208DF810000E2201A903A805F0A2
:1034900039FA002006F06EFEBDF90620BDF90410D1
:1034A000304606F0BDFE304606F0EEFC06B070BDBC
:1034B000687E030825642E25303264001FB5002085
:1034C00007F06AFC00212D23EF22084605F002FCDC
:1034D0002E22002111481CF08BFF27224E2110487C
:1034E0001CF086FF00200CF0CBFD0EF0C3FDFDF7B5
:1034F0007FFB0C4900200C4A88754FF461736421EE
:10350000CDE90030CDE90212084B72211A463A206B
:1035100001F0E0FEBDE81F4016F038B93AC70D00D3
:1035200006A30D00B41B002081FC0208181A00201D
:10353000F0B585B02F4801F005F82F4C0A236278CA
:10354000616831F81200B0FBF3F503FB150028B9F0
:103550002A48007808284BD0022849D001200027AB
:10356000CDE901704FF4617000901423CDE903732D
:1035700031F912100223082221480AF0F5F9627885
:103580006168204D31F81230834210D021F81200CA
:10359000FFF748FF60782E5C03F038FC0146607846
:1035A000B142295403D00246114601F087F816486B
:1035B0000178A1B107700026304603F027FCA8551A
:1035C000761CF6B2092EF7D962780921002001F0A5
:1035D00075F86178606830F81100FFF723FF0B4839
:1035E0000088002802D10A490120087005B0F0BD0A
:1035F0000A20B4E725340108941C0020EC1A0020AE
:10360000E31A002094260020A61B0020901B002017
:10361000FC1900202DE9F0472C4C2788042020803D
:103620002B4EDFF8B080DFF8B0902C4D47E000BFA4
:103630000FF09CFFA8F800000FF0DAFF2848008880
:1036400030802848008880B22880B0F5AF5F02D96A
:10365000052003F08DFA30882988642300FB01F2ED
:1036600092FBF3F2DFF880C092B2A9F80020BCF818
:1036700000C00CEB0C1C0CEB8C0CBCFBF3F383427A
:1036800020D9B8F80000B0F58F7F1BD344F2C040BA
:10369000824217D2B1F56B6F14D20FF0FBF85FEADC
:1036A000000A03D01148008800F03EFC0A2016F002
:1036B000EDFA052001F050FDBAF1000F02D120888B
:1036C0000028B5D12780BDE8F0870000461900200A
:1036D000301B00202C1B00202E1B0020321B002042
:1036E0002C190020301900201C1B00204419002038
:1036F0002DE9F04186B0284800F024FF4FF0010882
:103700000522DC208DE8050114210027234CCDE99A
:103710000371617860680223082230F91110204893
:103720000AF022F9627861681E4D31F81230834246
:1037300010D021F8120000F063FE60782E5C03F0D8
:103740007DFB01466078B142295403D00246114600
:1037500000F0B4FF14480178A1B10770002630468C
:1037600003F06CFBA855761CF6B2092EF7D96278E7
:103770000921002000F0A2FF6178606830F8110094
:1037800000F03EFE09480088002802D1084981F86F
:10379000008006B0BDE8F08101440108941C0020BF
:1037A000E31A002094260020A61B0020901B002076
:1037B000FC1900201B4910B5062008701B491A4847
:1037C0001D4C08601A49143008601A481B492060D3
:1037D000401C08600FF040F8022007F01DFB18485D
:1037E0001849006888420ED11748007858B1174828
:1037F000007830B1012804D002280ED003280ED062
:103800000220216808703C2111A00EF061F90EF031
:1038100097F9BDE810400FF02DB80320F1E7042020
:10382000EFE70000451C002004250308481C002089
:103830004C1C0020231D0020501C0020541C002084
:103840009C1B0020DD4A01088D1B0020441C002029
:10385000434320534554000010B50AF0B9F9194804
:10386000017879B100210170012016F00BF8FFF703
:10387000A1FF1549012008701448154900880880E7
:1038800014490880144C2078032810D00C2812D03A
:1038900000F02CF80120FDF759FA012003F02EFD6D
:1038A00011F04EFBFEF7BEFC0D20207010BD0B4842
:1038B00017F086FDF8E70A4817F082FD0A49094823
:1038C0000860F1E78C1B0020ED1A0020A41B0020EB
:1038D000921B0020901B0020AB1B0020B923010885
:1038E000098F020849900208241C00202DE9F041AC
:1038F00009F0F6FF1E48007801281AD01D4800780C
:10390000042833D11D491C48002608601C480124A6
:10391000042300680327022590F800C019481A49BB
:103920001A4ABCF1060F21D2DFE80CF005090E128D
:10393000171B174816E006700F70164812E0047047
:103940000520087014480DE003700B70157002E03C
:1039500005700B701670114804E007700B7014703E
:10396000F9E70F48BDE8F04117F032BDBDE8F0813E
:10397000E11A0020F31A0020593801080C1C00201D
:10398000501C0020441C0020A71B0020A91B002065
:10399000AD0F020891420108B5320108212E01083D
:1039A000DD4A010870B5234C054682B02068418C81
:1039B000B0F84C2011444184818CB0F8502011445F
:1039C0008184284605F02EFF2168498CADF800104F
:1039D0004618284608F096F93044401EADF8040019
:1039E00005F044FF2168898CADF802100844401EA0
:1039F000ADF80600684616F041FF30B1284603F0E6
:103A000035FA16F06DFD0028F8D10A2D04D0BDF866
:103A100004002168401C48842068418CB0F84C2088
:103A2000891A4184818CB0F85020891A818402B0AF
:103A300070BD0000E81D00200B490128086803D074
:103A400020F040000860704740F0400008600749DF
:103A5000402009698843F6D103481030016841F0DD
:103A60004001016070470000003C0140000002403E
:103A700010B50022044B03E050F822401C60521C99
:103A80008A42F9D3186810BD003002400020704708
:103A900000207047002070472DE9F0479FED271B5D
:103AA00099462DED048B90460E4607469DED0C8AF7
:103AB00053EC112B51EC100BFCF7C8FB0D4645ECF9
:103AC000100B9FED209B044653EC192B51EC100B6F
:103AD000FCF72EFCFCF7DEFC00EE100A1CF0A8FB45
:103AE00000EE907AB8EE481A53EC192BF8EE600A03
:103AF00041EE000ABDEEE00A10EE100A45EC104B54
:103B0000A8F8000051EC100BFCF712FCFCF7C2FC0B
:103B100000EE100A1CF050FB00EE906AB8EE481A56
:103B2000F8EE600A41EE400ABDEEE00A10EE100A1F
:103B3000A9F80000BDEC048BBDE8F0870000006030
:103B4000FB21094000000000008066402DE9FC5F79
:103B5000824C83494FF4877BA07E0A78002550B1C0
:103B6000012870D1207A00286ED0002A6DD07D48BF
:103B7000018891B115E0002A65D07B4800780228C1
:103B800061D9A5740120A076A4F830B06FF0590176
:103B9000A18620720B206071E9E70421018015F0F5
:103BA000F5FD6079A0460B287ED388F8055098F87B
:103BB000121040460F2901D2491C8174826C847C0A
:103BC000DFF8A891B2F90230B2F90010DFF8A0A135
:103BD0005E1A664B09F158091B5D39245E4396FB5A
:103BE000F4F6314409B24186B2F90660B2F9042014
:103BF000B61A5E4396FBF4F31A44C286B8F9303025
:103C00008B4239DD04220024D8F84460204600BFEE
:103C100036F930709F4201DD8F4202DC824200D9CA
:103C2000024606EBC007B7F902709F4201DA8F42E5
:103C300002DB844200D20446401CC0B20528E7D310
:103C4000D6B24F4611E071E07AE075E007EB06115D
:103C5000484AB1F902002830CDE90005B1F9003039
:103C600050460DF05BFD761CF6B2A642EED9B8F8D0
:103C700032104046A8F830100346B0F93400B3F9CA
:103C80003620904237DA04210026D8F844703446B2
:103C900007EBC403B3F904C0844501DD944502DC9D
:103CA000A14200D9214600E025E0B3F90630834265
:103CB00001DA934202DBA64200D22646641CE4B23B
:103CC000052CE5D3CCB24F460FE000BF07EB041143
:103CD000294AB1F90A002830CDE9000531F9083F39
:103CE00050460DF01BFD641CE4B2B442EED9B8F8A6
:103CF0003610A8F83410D8F84810B8F93000444607
:103D0000B1F90220824213DBB1F90620B4F9341074
:103D10008A420DDCE27E002A08D100F07BF8A5740F
:103D2000A4F830B06FF05900A0866571BDE8FC9F23
:103D30000B2088F81B00F9E725723220E076F5E7C2
:103D40000649B1F93000B1F934101AB100F062F847
:103D5000A576EBE7E27E002AF8D0E7E7B41B002067
:103D6000041B0020AE1B0020031B0020F81E0308CC
:103D7000EA2F130085F70208ADF7020810B50446D4
:103D80000A2803D319491A4811F0A6F8082C0BD3B6
:103D9000A0230B221749184802F004FDA023D122CA
:103DA0001649154802F0FEFC062C0BD3B8230B2253
:103DB0001349114802F0F6FCB823CA2211490E48F3
:103DC00002F0F0FC032C09D3D5221E210E481CF072
:103DD0000FFBD52299210D481CF00AFBE822BDE813
:103DE000104055210A481CF003BB00006AB21500C0
:103DF0002AA5170042941700718C01087AFA17005F
:103E0000F299170072001800A2DF17000EED1700DC
:103E1000AA0B18002DE9FC471F4DDFF88080DFF862
:103E200080A00E46074604244FF00009686C00EBA2
:103E3000C401B1F90210B94210DB30F83400288611
:103E4000698608EB0411174AB1F902002830CDE960
:103E50000009B1F9003050460DF060FC686C00EBD1
:103E6000C400B0F90410B1420FDC2986C08808EB09
:103E700004116886B1F90A000A4A2830CDE9000920
:103E800031F9083F50460DF049FC641E64B2002C25
:103E9000CCDABDE8FC870000B41B0020501F0308EB
:103EA000E296110071BB0208024800218160416066
:103EB00070470000801B0020F0B500230A4C3F250E
:103EC00006E0067866B1D718401CE6555B1CDBB2ED
:103ED0008B42F6D3F0BDD6185B1CA555DBB2401C57
:103EE0008B42F8D3F2E700002C270020F0B5002326
:103EF0000C4C3F250AE00C2B01D12032D2B20678BF
:103F000066B1D718401CE6555B1CDBB28B42F2D37E
:103F1000F0BDD6185B1CA555DBB2401C8B42F8D314
:103F2000F2E700002C270020084910B5098841431A
:103F30000A2091FBF0F01DF041FA0549054A08807E
:103F40001288904200D90A8010BD0000141B002086
:103F50001C1B0020381D002030B5C278417802F5C6
:103F6000FA62032903D20C31521EC9B292B2642400
:103F7000B2FBF4F3B2FBF4F504FB1522491C01EB90
:103F8000810404EBC1010524B1FBF4F1DBB29C0810
:103F90005B4204EB430302EB92021A448078114423
:103FA0000844401E00E0C01D00B20028FBDB0721D2
:103FB00090FBF1F201FB120000B90720C0B230BD46
:103FC0000348428C818B8A4200D9418470470000AB
:103FD000F81A0020174810B50078174C09280ED899
:103FE0001649096831F8100015492080097831B167
:103FF000203800EB8000092190FBF1F0208011486F
:10400000017861B10021017012F0B6FF0E480188FD
:1040100020880EF00DFAFFF7D3FF02F0BBFC0EF084
:1040200039FC08B1FFF7CCFFBDE81040012017F0C4
:1040300045BA0000281D0020541B00202C1D002024
:10404000A81B0020071B00202A1B00202DE9F0419F
:10405000334835490578334809782DB179B1334A69
:1040600001290FD068320EE021B1304A012904D075
:104070002C3208E02D4A403205E0543203E02B4A4E
:104080007C3200E090320260294A52F82140294AED
:1040900061881180284A002164231170274A117019
:1040A000227812FB03F3264A264F13803E88B34240
:1040B00001D23B8000E01680234B12881A800068F2
:1040C000224A00882DB1203800EB8000092390FBA4
:1040D000F3F010801E4842F2107305781D485DB160
:1040E0001288DC2A08D2C2F1DC026FF018056A439C
:1040F00003EB4202028000E0038022780088424302
:104100004FF49670B2FBF0F0134A10801348017020
:104110000EF074F9134912480860BDE8F081000000
:10412000A81B00202C1D0020A91B0020001A002025
:1041300064190020561B0020281D0020291D002086
:10414000141B0020161B0020181B0020541B0020ED
:10415000501B0020421D00201A1B0020581B00206D
:10416000D53F01084C1B00202DE9F0411C481D4D96
:104170001D4E00780A271D4C09281ED81C4A1D49CF
:10418000137809788B4218D011701B49096831F8EF
:1041900010002080404300EB80002988400090FB05
:1041A000F1F082B2154802803088824205D9484336
:1041B00090FBF7F01DF002F920800EF06BFB50B180
:1041C00030882988484390FBF7F01DF0F7F82188E4
:1041D000814200D92080BDE8F041012015F056BD94
:1041E000281D002044190020141B00201C1B002047
:1041F000441D0020291D00202C1D00201A1B00201A
:1042000070B517481749194A008808801649116087
:10421000174A0024194D1470164A1470098801FBBE
:1042200001F202EB82025300134A128893FBF2F36D
:104230009BB22B80124D834207D950430A2190FB39
:10424000F1F01DF0BBF8288000E029800D480F49EF
:1042500004700D480860BDE87040FFF7DBB900004E
:10426000161B0020141B0020181A00202C1D0020F3
:10427000281D0020291D0020441900201A1B0020A1
:104280001C1B0020441D0020694101084C1B00201C
:104290002DE9F04109F09CFC2848294D01240178C2
:1042A00079B100260670012015F0ECFA00F066F8EE
:1042B0002448264904702448AE70008808802449A8
:1042C0000880DFF89080244E98F80000032807D07B
:1042D0000C2807D0A878214F40B13888E8B11FE0FA
:1042E0001F4800E01F4817F06BF81BE0FFF700FACB
:1042F0001D480078042807D1AC7034700520388040
:1043000001211AA001F0AAFA0120FCF71FFD0120EB
:1043100002F0F4FF10F014FE02E0154817F058F810
:10432000FDF780FF1348144900680968884200D0EF
:1043300034700D2188F80010BDE8F0818C1B00203E
:10434000941C0020ED1A0020A41B0020921B0020CA
:10435000901B0020AB1B0020FC190020AE1B00208E
:10436000B9230108098F0208F31A00204F4B0000FF
:10437000AD0F0208981B0020941B002070B51B4D48
:1043800019481B4E00246860204602F057FD305546
:10439000641CE4B2092CF7D9002028706978092937
:1043A00000D96870022006F037FD0EF055FA36216C
:1043B00010A000F00BFA6FF07F4006F0EDFC0F4804
:1043C00006F0F4FC3A221521572004F0A9F9697887
:1043D000686830F8110000F013F8687800F0F0F821
:1043E000BDE870400EF046BA041A0020941C00206C
:1043F000942600204343572053455400687E030809
:1044000030B585B08822ADF8082050220446ADF8BA
:104410000A2066200122ADF8040041210092ADF887
:1044200006101023232205F0D3FC054605F0A2FE5A
:10443000002006F0AFFC04F055F86FF07F4006F066
:10444000ABFC0F4806F0B2FC22460EA103A81BF0FD
:1044500089FA00208DF810000E2201A903A804F0AB
:1044600051FA002005F086FEBDF90620BDF90410C2
:10447000284605F0D5FE284605F006FD05B030BDFE
:10448000687E0308256400001FB5002006F084FC48
:1044900000212D23EF22084604F01CFC2E220021CF
:1044A00011481BF0A5FF27224A2110481BF0A0FF4E
:1044B00000200BF0E5FD0DF0F5FDFCF799FB0C4934
:1044C00000200C4B887564220521DC208DE80F004C
:1044D000094A7221131D3A20121D00F0FBFEBDE8AF
:1044E0001F4015F053B900003AC70D00F6B30D0098
:1044F000B41B002081FC0208001A002010B50EF049
:10450000C9F908B1FFF75CFD0C480D4B4FF6FF727F
:1045100001784068092902D830F8110000E0408A8B
:1045200000EBC00101EB001002EA80001880FFF7E9
:1045300047FDBDE81040012016F0C0BF281D002037
:104540001A1B002070B586B0064601200022CDE976
:1045500001206421CDE903010920164D0090FF23BD
:1045600001226978144809F0FFF969780446884205
:1045700011D0E0B200F024F86978E2B2084600F009
:104580009DF8E2B2E1B2E0B200F098F8686830F865
:104590001400B0476C70094C29782078814206D00D
:1045A000012800D0002001F035FD2078287006B0E9
:1045B00070BD0000941C0020E31A0020BC1A0020EB
:1045C000F8B500EB8000401DC5B201206A26C9275E
:1045D000009010231D223946304605F0F9FB0446B1
:1045E00005F0C8FD002006F0D5FB03F07BFF6FF05F
:1045F0007F4006F0D1FB0C4806F0D8FBC6216B20AB
:1046000005F0C8F901220321284604F0B0F8002083
:1046100005F0B0FD3A463146204605F001FE204641
:10462000BDE8F84005F030BC687E03082DE9F04194
:104630001F4C2078002817D01E4D2878002813D151
:10464000052028700026271D26704FF0A530386001
:1046500019480AF009FF2821201DFFF709FAD7F8A9
:10466000A410814202D12E70BDE8F081C7F8A400E9
:1046700060884FF4804707EB8000002110F07AF942
:1046800060882A3080B260802A30B0F5806F03D312
:104690006680384615F08EFB6088054907EB800080
:1046A0002A22091D10F0A2F910F064FADBE70000DD
:1046B000FC1900204A1D0020003002402DE9F74F70
:1046C000064629208B4600EB0614332282B002EB0B
:1046D0000B1001220092021B64F30F05592161F3B4
:1046E0001F4562232046521C05F072FB009005F026
:1046F00041FD002006F04EFB03F0F4FE64F30F07CB
:104700000A3464F30F08BA46C1462EE00498864284
:1047100002D16FF07F4000E01C4806F03DFB00270F
:104720000FFA8AF80FFA89F40EE0784200EB800065
:10473000BA2101EB4003B32101EB40012246404680
:1047400004F0C8FA7F1CFFB21148805DB842ECD873
:1047500008F11000514660F30F011034484664F32D
:104760000F00761C8A468146F6B25E45CED90020FF
:1047700005F000FD2A1429B2009805F051FD0098BB
:1047800005B0BDE8F04F05F07FBB000000EFFF0073
:1047900094260020074808490088088008480749EF
:1047A000416000210170417007490648086000F02F
:1047B000B1B80000161B0020141B0020041A0020B2
:1047C000281D0020FD4401084C1B002070B586B058
:1047D0000DF07EF9002145A001F040F8444806F0B4
:1047E000DBFA032003F082FB0E2000904FF482736B
:1047F000C322E8212D2003F0E1F93E4806F0CCFA6F
:104800000C2000904FF481739522EA215B2003F085
:10481000D5F9394CD4E90001CDE904016FF07F40AE
:1048200006F0BAFA354806F0C1FA0E2204A934A0FF
:1048300004F068F8002001F02BF9002001F0EAFBF9
:10484000314806F0B3FAB722D921532003F068FFAC
:10485000032003F04BFB2D4806F09EFA2C34502326
:1048600094E8070001AC84E807001B22032101A89B
:1048700003F0A4F80020ADF80400ADF80600ADF890
:1048800008000620ADF80A000920ADF80C0003204E
:10489000ADF80E000146C023CB2201A803F08EF82C
:1048A00000245B255FF0590605EBC40206EBC4014A
:1048B0001E2004F0E7F9641CE4B20E2CF4D30024AB
:1048C0002625242605EBC40206EBC401C32004F010
:1048D00061F9641CE4B2152CF4D30D480921427827
:1048E0000020FFF7EBFE06B070BD00004F4B00004C
:1048F0004E5357003C86B5001C2203083CBA0308FF
:104900004649524500000000687E03081631360013
:10491000941C00202DE9F047274C27880420208094
:10492000DFF89880264E274D40E000BF0EF01EFEB7
:10493000A8F800000EF05CFE234800883080234871
:10494000008880B22880B0F5AF5F02D9052002F060
:104950000FF930882988642300FB01F292FBF3F2FF
:104960001B4B92B21A801B4B5B681B8803EB031333
:1049700003EB830393421CD9B8F80020B2F58F7F74
:1049800017D340F26632904213D2B1F56B6F10D25A
:104990000DF080FF8146FFF713FB0A2016F08EFD15
:1049A000052000F0D9FBB9F1000F02D120880028C2
:1049B000BCD12780BDE8F087461900202C1B0020C1
:1049C000301B0020321B00202C1900203019002041
:1049D0002E1B0020281D002030B4084B884201D136
:1049E000074A01E01A46074B074C0749083C01EB10
:1049F000C00154F8200030BC0DF094BF4E53570056
:104A000000EFFF003C86B5004821030830B4084B96
:104A1000884201D1074A01E01A46074B074C074973
:104A2000843C01EBC00154F8200030BC0DF07ABF8B
:104A30004E53570000EFFF003C86B50010230308DB
:104A400030B4084B884201D1074A01E01A46074BAF
:104A5000074C0749083C01EBC00154F8200030BC6A
:104A60000DF060BF4E53570000EFFF003C86B500CD
:104A70006422030830B4084B884201D1074A01E0A0
:104A80001A46074B074C0749843C01EBC00154F818
:104A9000200030BC0DF046BF4E53570000EFFF0022
:104AA0003C86B5000023030830B4084B884201D18E
:104AB000074A01E01A46074B074C07498C3C01EBBB
:104AC000C00154F8200030BC0DF02CBF4E535700ED
:104AD00000EFFF003C86B5002023030810B509F065
:104AE00077F81948017879B100210170012014F09C
:104AF000C9FE0DF021F91549012008701448154927
:104B00000088088014490880144C2078032810D0AD
:104B10000C2812D00CF00EFC0120FCF717F9012034
:104B200002F0ECFB10F00CFAFDF77CFB0D2020707E
:104B300010BD0B4816F044FCF8E70A4816F040FC9C
:104B40000A4909480860F1E78C1B0020ED1A002093
:104B5000A41B0020921B0020901B0020AB1B0020F8
:104B6000B9230108098F020849900208241C00207B
:104B7000704710B500231A4604E030F81240521C6A
:104B80002344D2B28A42F8D3B3FBF1F080B210BD15
:104B90002DE9F04768486A4C01786848007801437D
:104BA0004FF0320002D0A070BDE8F087A178002954
:104BB000FAD1A070A5202070FF2060700020614E07
:104BC000614FDFF888814FF005094FF4805A0546A0
:104BD00056F820103A5C097891422BD098F80010D2
:104BE0000029E1D188F80090A08800F540500FF02E
:104BF000DFFEA088343080B2A0803430504504D32A
:104C0000A5804FF4405015F0D5F8002056F820103C
:104C100009783954401CC0B23428F7D3A088342214
:104C2000494900F540500FF043FF0FF0A3FF88F80B
:104C3000005003E0401CC0B23428C9D3414E424F5B
:104C40000020D03617F1340756F820103A5C097866
:104C500091422CD098F800100029A5D188F8009036
:104C6000E08800F5A0400FF0A3FEE0880C3080B291
:104C7000E0800C30504504D3E5804FF4A04015F09F
:104C800099F8002056F8201009783954401CC0B219
:104C90000C28F7D32C49E0880C22343100F5A040D1
:104CA0000FF006FF0FF066FF88F8005003E0401C8D
:104CB000C0B20C28C8D3224F0020254E17F10A0796
:104CC00056F820103A5C097891422CD098F80010E0
:104CD000002986D188F80090208900F5C0400FF0A7
:104CE00067FE2089083080B220810830504504D307
:104CF00025814FF4C04015F05DF8002056F82010D3
:104D000009783954401CC0B20828F7D30C492089CF
:104D100008220A3100F5C0400FF0CAFE0FF02AFF4A
:104D200088F8005003E0401CC0B20828C8D3BDE892
:104D3000F047FFF77BBC0000041B0020BC1A0020DA
:104D4000AA1A00208C1C0308FC2500204A1D002004
:104D50008C1D03081AF06AFEF0B51F484FF4CF759A
:104D60000146847C2E1F4B8E4F7C8A8E00212CB9ED
:104D7000AB4205D903F1030C944501D3B34211D8DA
:104D800090F809C0BCF1050F04D20CF1010C80F8B9
:104D900009C008E027B11CB1A0F84810A0F84A10DB
:104DA000417401E0417227B9AA4204D9D51C9D4241
:104DB00001D3B2420ED8827A052A02D2521C8272E4
:104DC000F0BD427C22B11CB1A0F84810A0F84A10F6
:104DD0008174F0BD8172F0BD881900202DE9F04387
:104DE000464900204FF0020808704549464A4B4B9F
:104DF00081F8008043494C4C504D087001211170DE
:104E0000424A4F4F4F4E1170414ADFF83CC110707B
:104E1000404A1070404A1070B4221A80404B9622CB
:104E20001A80404B64221A704FF4B47323803F4CB5
:104E3000322323803E4CCD2323803E4C930023809D
:104E40003D4C62806A8040F226227A804FF4A07244
:104E500072806922ACF802204B223A7032707326BD
:104E60008CF800602270394C2A702270384A3B4C12
:104E70001170384A1080384A10700A222270384C5B
:104E800008222270374A394F4FF078091060364AAD
:104E90004FF0C80C10600022544204EB840509EB6B
:104EA000450607EB420405F5D275A68002EB8206A3
:104EB00025830CEB4605A585A4F84050A4F8545072
:104EC00003EB8605A4F86850521CA4F87C50D2B2BB
:104ED000A4F890500A2ADFD3254A1070254A117091
:104EE000254A1070254A1080254A1170254981F8FD
:104EF000008025490870BDE8F0830000A71B002052
:104F0000A91B0020AA1B0020A81B00203C1D00207C
:104F100038190020F41C0020D41C0020D61C0020CE
:104F2000A41B00205A1D0020381D00203E1D00201B
:104F3000321D0020341D002070190020741900203B
:104F4000581900205C1900206019002078190020F1
:104F5000501B00203A1C00203A1D0020841D002018
:104F60008A1D0020841B0020881B0020001A0020BE
:104F7000F91C0020FC190020031B0020101B00203E
:104F8000421C0020431C0020441C002010B508F0E7
:104F90001FFE1748017879B100210170012014F03B
:104FA00071FC00F077F8134901200870124813498A
:104FB0000088088012490880124C2078032810D0FD
:104FC0000C2810D000F024F80120FBF7BFFE0120D0
:104FD00002F094F90FF0B4FFFDF724F90D202070D2
:104FE00010BD094800E0094816F0EAF9F6E70000AC
:104FF0008C1B0020ED1A0020A41B0020921B002017
:10500000901B0020AB1B0020B9230108098F020868
:1050100010B586B001200022CDE901206421CDE940
:105020000301164C009002230822A178144808F0CE
:105030009BFCA178884208D0C1B2A1700020FFF784
:10504000E5FCA1780120FFF7E1FC0E480078042878
:1050500004D1A07860B10C4816F0BAF90B4800787A
:10506000012809D106B00A48BDE8104016F0B0B9D1
:10507000FFF7B4FE0648EFE706B010BDA41C002001
:10508000E31A0020F41A002065620208E11A0020E9
:10509000AD0F020838B524482449254C00688842E1
:1050A00002D02449884204D12348007808B1012065
:1050B000A070022005F0B0FE0DF0CEFB26211F48A7
:1050C0000CF006FDE62202211D481BF091F9672233
:1050D00053211C481BF08CF96FF07F4005F05CFEFB
:1050E000194805F063FEC822782118A003F0F0FBF0
:1050F000184805F051FE032002F0F8FE122000903F
:1051000040F22F13E12240F20B110F2002F056FD66
:10511000A1780020FFF77AFCA1780120FFF776FC48
:10512000BDE838400DF0A6BB9C1B0020656202085C
:10513000A41C0020AD0F02088D1B00202C1D0208AE
:10514000DBBB02009AAD0600F8E103084445464186
:10515000554C54004E53570003E01821491EC9B264
:10516000FCD2401EF9D270472DE9FF4F002081B0DC
:10517000DFF858E10090DDF838909EF80A500146BB
:105180006D1CEDB2044606468EF80A50052D04D972
:1051900000258EF80A5001200090D71A0020DFF871
:1051A00030A164225743019A32F81020D21A02FB30
:1051B00009F202EB8202520092FBF7F2521C95B206
:1051C000029A32F81020D21A02FB09F202EB820294
:1051D000520092FBF7F2521C1204120C00D1012271
:1051E00085B10A2D00D90A250A2A00D90A22DFF83A
:1051F000E080A8F1140838F810C0AC4504D228F8B3
:10520000105005E00125EFE7944504D228F810205E
:105210004FF0010107E009D9009A22B1ACF1010C6D
:1052200028F810C0F4E704F10104E4B2284D38F87E
:105230001020A5F1280535F810C0624508D9761C64
:1052400025F810204FF00F0C0AF800C0F6B201212B
:1052500035F810C0E346944501D9761CF6B21AF829
:1052600000C0BCF1000F04D0ACF1010C0AF800C082
:105270000AE04FF005080AF80080934504D9ABF125
:10528000010125F810100121401C80B20A288AD3A0
:1052900011B1DEF84000804700210D4A0846143A5B
:1052A00035F8103032F81070BB4201D0012103E014
:1052B000401C80B20A28F3D32143314303D000209D
:1052C00005B0BDE8F08F0120FAE70000B41B002014
:1052D0007C2600202DE9F84F93460BAA9A4692E8C7
:1052E0000811104D0022DDF82890144605F114062F
:1052F00005F1280725F8124026F81240BC54521C2C
:10530000D2B20A2AF6D3084AC2F840C010875187A1
:105310004A4651465846CDF80080FFF725FFBDE8C4
:10532000F88F000054260020B41B002000B5084868
:1053300087B000210171074801228261CDE9022175
:1053400004910092019269460AF022FA07B000BD6A
:1053500038190020000402402DE9FF476D4A6E4DC8
:10536000002413784FF4B4725043B0FBF1F0C0F551
:10537000EB7001B20826B5F92A20082BE985A9852A
:1053800020460B4631D0654F07EB800CBCF902C0BC
:105390009C4501DD944502DC864200DDC6B237F94A
:1053A00020C09C4501DA944502DB844200DAC4B295
:1053B000401C40B20928E7DB584F483F914209DDC5
:1053C00064B2B44269DB07EBC401554815F022FF13
:1053D000641EF5E761DA76B2A6425EDC07EBC60131
:1053E0004F4815F017FF761CF5E74C4F17F16C0787
:1053F00007EB800CBCF902C09C4501DD944502DC42
:10540000864200DDC6B237F920C09C4501DA9445DA
:1054100002DB844200DAC4B2401C40B20928E7DB58
:105420003E4F4FF000082437914237DD64B2DFF879
:10543000F49030E02879052803D1032C0DDB072CEC
:105440000BD007EBC4014846B1F902207A32CDE90E
:10545000002837F93430344A18E037F93430A3F1F2
:105460000C00ADF8080007EBC400B0F90210ADF86D
:105470000A1082880C3AADF80C20C0887A31CDE948
:105480000018ADF80E00284A284802A90B330CF08A
:1054900045F9641E64B2B442CCDA37E036DA76B24B
:1054A000DFF88C9030E02879052803D1032E0DDB3E
:1054B000072E0BD007EBC6014846B1F902207A321D
:1054C000CDE9002837F936301A4A18E037F9363076
:1054D00007EBC601A3F10C00ADF80800B1F902001A
:1054E000ADF80A008A880C3AADF80C20C9887A30E9
:1054F000CDE90008ADF80E100E4A0F4802A90B3393
:105500000CF00CF9761C76B2A642CCDDA88D68852D
:10551000BDE8FF87A71B0020B41B00206020030804
:105520000D0C0108E2EC1500B10C01087A3D1500E4
:1055300092C01600890C0108F27715003EB52C497F
:10554000D1E90201CDE9010101200090BDF90A0075
:10555000BDF90610BDF90820431ABDF904005B1C13
:10556000121A521C04F034FC054604F003FE2148D4
:1055700005F012FCBDF90A30BDF90820BDF906108E
:10558000BDF9040003F0A6FB1B4C207888B9042069
:1055900002F0ACFC194805F0FFFB0E200090BDF9AD
:1055A0000A30BDF90820BDF90610BDF9040002F06B
:1055B00005FB134805F0FAFB6FF07F4005F0ECFBAC
:1055C0000B48617820300E2250F8210001A903F029
:1055D00099F9002004F0CEFDBDF90620BDF90410B4
:1055E000284604F01DFE284604F04EFC3EBD000097
:1055F000D42103084E535700781C00203C86B50088
:10560000D8D8030830B50446C72285B0DA20E9B3FC
:105610007A21ADF80410ADF80620ADF8080000BFFF
:10562000ADF80A0001200090BDF90A00BDF906108E
:10563000BDF90820431ABDF904005B1C121A521C64
:1056400004F0C6FB054604F095FD002005F0A2FB22
:1056500002F048FF164805F09FFB164805F0A6FB30
:10566000224615A103A81AF07DF900208DF812003A
:105670000E2201A903A803F045F9002004F07AFDE9
:10568000BDF90620BDF90410284600E006E004F04C
:10569000C7FD284604F0F8FB05B030BD1521ADF874
:1056A00004107521ADF80620ADF80810B8E7000029
:1056B0003C86B5007482030825644D494E00000005
:1056C0000848016990F9012090F9020091F9001051
:1056D0001044401E814201D1012100E0002102A0BE
:1056E00000F0BCB8081D00204558495400000000D7
:1056F000F8B51B4907460122D1E90E010514C5EB97
:10570000214304B209B200920A1B29462046521CCA
:105710005B1C04F05DFB064604F02CFD002005F048
:1057200039FB02F0DFFE6FF07F4005F035FB0D48DE
:1057300005F03CFB7A21512004F02CF902220421CF
:10574000384603F014F8002004F014FD2A462146E0
:10575000304604F065FD3046BDE8F84004F094BBE7
:10576000C81D0308DC9103082DE9F04186B0074607
:105770000C4601201546002100902623D822084619
:1057800004F026FB804604F0F5FC002005F002FB47
:1057900002F0A8FE032002F0A9FBA54201D1234894
:1057A00000E0234805F0F8FA122500212523D7222E
:1057B0000846009502F002FA1E4E01A9B06850F8A2
:1057C000240001F0E3FA019800EBD070A5EB600033
:1057D000C2B2029800EBD070A5EB6000C3B2B06813
:1057E00050F82410144800F0DDFF144805F0DEFAEC
:1057F0006FF07F4005F0D0FA70680A22242150F83B
:10580000240003F05DF8002004F0B4FC07EBC700AF
:10581000C0EB87120C2140463C3204F001FD4046AB
:1058200004F032FB06B0BDE8F08100003C86B50014
:10583000585C5F00081D0020718C01083CBA030809
:1058400070B5054D286D80470446E86C80472146B9
:10585000BDE87040FFF780BDB41B0020F8B50746D7
:1058600001200D464FF48C76009025236D223146A1
:10587000422004F0ADFA044604F07CFC32464FF0BE
:1058800042012DB110481AF03DFD6FF07F4003E05A
:105890000E481AF037FD002005F07EFA0C4805F09E
:1058A00085FA40F227127821384603F011F80020DB
:1058B00004F060FC32464221204604F0B1FC204650
:1058C000BDE8F84004F0E0BAB37B0200C79B0200D9
:1058D000687E03083EB54A483223417A8DF80010AD
:1058E000817A8DF8011002783021462A16D0D2B282
:1058F000532A16D0D4B231224F2C16D0E4B24E2CFB
:1059000018D0E4B2442C18D0E3B24A2B1AD0DAB241
:105910004D2A26D0D2B2412A2CD033E08DF8021085
:105920000DE08DF8021039222AE08DF802208DF862
:10593000031027E08DF8022022E08DF802208DF878
:1059400003301FE04378612B06D082788DF8021077
:105950006E2A04D0372213E08DF8021010E03622B0
:105960000EE082788DF80210722A01D0352207E00D
:10597000332205E042788DF80210702A08D03822D0
:105980008DF8032002798DF80420202A02D003E04C
:105990003422F5E78DF8041040798DF80500194898
:1059A00001788DF8061041788DF80710C1788DF8D0
:1059B000081000798DF8090000208DF80A0005F024
:1059C0002BFA6FF07F4005F0E7F9002005F0E2F9CF
:1059D0000D4805F0EBF9192232210CA002F070FFFE
:1059E0002B223221684602F06BFF0C480078002819
:1059F00004D1C8225F210AA002F062FF3EBD000070
:105A0000A0240308AC240308F8570308535457395B
:105A10003232385F56312E3000000000661B002005
:105A20004E47000038B50446012000901C231F2279
:105A30005F21232004F0CCF9054604F09BFB1048BD
:105A400005F0AAF97A2341225F21232003F042F9CD
:105A50004FF05F034FF023020CB10A4900E00A49FE
:105A60000A4800F09FFE002004F084FB5F222321FF
:105A7000284604F0D5FB2846BDE8384004F004BAB7
:105A80004E53570083EF05005FDB0500718C010862
:105A900038B504460120009015231922EC21362048
:105AA00004F096F9054604F065FB114805F074F919
:105AB0004FF480734E22EC21362003F00BF94FF0A7
:105AC000EC034FF036020CB10A4900E00A490B48DA
:105AD00000F068FE002004F04DFBEC223621284641
